:10000000DBEF02F0F76A140FF66E000EF72209001C
:10001000F550120020738242514404720050F76A76
:100020002E0FF66E000EF7220900F5501200207018
:100030008040504000700050F76A480FF66E000E86
:10004000F7220900F55012002410050CEA6A180E78
:10005000E96EEF500EE0010E016E006A002EFED731
:10006000012EFBD74A0E006E002EFED700D0EF2ED9
:10007000F2D712008E0E006E36C001F035C002F0CD
:10008000036A015209E102C001F0026A080E005E33
:10009000015202E1006A08D0D89001BE04D00236B5
:1000A00001360006F9D7019E12003150D8B471D044
:1000B000006E3550D8B46DD0002604E3810E0026C2
:1000C00068E204D07F0E005E64E363E032C039F082
:1000D0003650391A328E368E34503802F4CF3BF017
:1000E00033503702F4CF03F0F3CF3AF03802F35035
:1000F0003B26F4503A22000E032234503702F350CC
:100100003B26F4503A22000E026A032202223250A9
:100110003802F3503A26F4500322000E02223250E5
:100120003702F3500326F4500222000E016A012226
:1001300034503602F3503A26F4500322000E0222C5
:10014000012233503602F3500326F4500222000EEF
:10015000012232503602F3500226F4500122002AC6
:1001600001BE05D03A360336023601360006000ECF
:100170003AAE0AD0032A02220122015005E10250C0
:1001800003E1035001E1002A39BE018E39AE019E20
:1001900004D0006A016A026A036A1200800ED8B2B3
:1001A0003A1A3F6A406A36C03EF03A503E1A35501D
:1001B000D8B4DCD03D6E006E3950D8B4E0D03D5E8E
:1001C000D8B481D03DE33AC043F0438E3BC042F007
:1001D0003CC041F0406AD890433242324132403212
:1001E0003D2EF8D73EAE03D03F80DDD03F903D900E
:1001F0003F88EA6A380EE96EE9D03F983EBE0AD0E1
:100200003DA013D04332423241324032002AD8B4AA
:10021000C5D00BD043BE0CD0D890403641364236C4
:1002200043360006D8B4BAD0F5D73F8C6BD03F9C8C
:1002300036C03EF036AE02D0438EA9D0439EA7D042
:1002400039C03DF039C000F035503D5E36C043F056
:10025000438E37C042F038C041F0406AD8904332F4
:100260004232413240323D2EF8D73EAE03D03F827B
:100270009AD03F923D903F8AEA6A3C0EE96EA6D042
:100280003F9A3EBE0AD03DA013D0433242324132A3
:100290004032002AD8B482D00BD043BE0CD0D890C4
:1002A00040364136423643360006D8B477D0F5D7CB
:1002B0003F8E28D03F9E3AC03EF03AAE02D0438EE9
:1002C00066D0439E64D03AC043F0438E3BC042F0B8
:1002D0003CC041F03EAE04D0439E3F8464D03F9486
:1002E000406A3D90EA6A380EE96E70D03EBE1CD07E
:1002F00036C03EF03DA006D0433242324132403259
:10030000002A4CE040AE0BD0412A09E1422A07E125
:10031000432A05E1433242324132002A3FE03FBCEA
:1003200086D73FBEC7D71CD0800E431A43AE04D039
:100330003AD03AC03EF00AD036C03EF0435206E111
:10034000425204E1415202E1006A21D043BE08D08A
:10035000D8904036413642364336002EF7D71ED06D
:100360003EAE02D0438E13D0439E11D039C000F070
:100370003AC043F03BC042F03CC041F008D035C029
:1003800000F036C043F037C042F038C041F043C0FF
:1003900001F042C002F041C003F034D0006A016AAB
:1003A000026A036A2FD0406A411E421E431E401E4D
:1003B000402A05E1412A03E1422A01E1432A3FB0F4
:1003C00015D73FB256D73FB48AD7B3D7EF5041269F
:1003D00005E3422A03E1432AD8B43D80ED52EF50B1
:1003E000422603E3432AD8B43D80ED52EF50EFBEDE
:1003F00001D0800A4326D8B03D803FB8FED63FBA30
:100400003FD774D712008E0E006E3150005E32C09E
:1004100002F033C001F0028E005209E0D89002527F
:1004200002E1015204E002320132002EF7D732AE6F
:1004300005D0011E021E012AD8B4022A120034502F
:10044000016A335C03E233C000F00CD0006A080E8E
:10045000356E333600363450005CD8B0006E01364D
:10046000352EF7D712002D6A2E6A2F6A306A18C00F
:1004700034F017C033F016C032F015C031F0C3DFCE
:1004800001C02FF018C034F017C033F016C032F09E
:1004900015C031F0386A376A480E366E850E356EF3
:1004A00004DE03C034F002C033F001C032F000C0FB
:1004B00031F02F50640DF350366A356EDBDDD88293
:1004C00034C038F033C037F032C036F031C035F0C8
:1004D00003C03CF002C03BF001C03AF000C039F06C
:1004E0005DDE03C034F002C033F001C032F000C062
:1004F00031F089DF01C030F0305217E0036A2E502E
:10050000230FE96E000E0320EA6E30C033F00A0EAE
:10051000346E95DF00C0EFFF30C033F00A0E346E4A
:100520008EDF01C030F02E2AE7D72F5217E0036A82
:100530002D50190FE96E000E0320EA6E2FC033F024
:100540000A0E346E7CDF00C0EFFF2FC033F00A0EBE
:10055000346E75DF01C02FF02D2AE7D71AC004F0E2
:1005600019C005F024C006F023C007F048EF03F0DF
:10057000176A175003081DE3036A17505DDD806E8C
:1005800017501524E96E000E1620EA6E036AEF502C
:1005900039DD826E17501524E96E000E1620EA6EC2
:1005A000036AEF503CDD816E010E186E4FDD172A95
:1005B000E0D74CEF03F0F86AD09E600ED36ED350B4
:1005C000106A0F6A200E0E6E830E0D6EC150C00BA6
:1005D0000F09C16E070EB46EF00E946E0F0E936E7F
:1005E000000E926E816A806A0A0E186E2FDD116A03
:1005F00081B0112A126A81B2122A136A81B4132AB5
:10060000146A81B6142A156A82BC152A1550100D79
:10061000F3CF15F01450080DF35015261350040DA8
:10062000F3501526D890123415241124366A356EED
:1006300021DD03C034F002C033F001C032F000C04D
:1006400031F0386A376A366A7E0E356E2EDDD89202
:10065000386A376A300E366E830E356E03C03CF052
:1006600002C03BF001C03AF000C039F097DD03C092
:1006700010F002C00FF001C00EF000C00DF010C06D
:1006800018F00FC017F00EC016F00DC015F0EBD625
:0C069000166A040E156E6CD7AAD7030082
:020000040030CA
:0E0000003FC93E1E000781000FC00FE00F40F9
:00000001FF
;PIC18F2550
;CRC=8DC6  CREATED="22-dic.-21 17:33"
