:100000000C9480000C948C000C948C000C948C004C
:100010000C948C000C948C000C948C000C948C0030
:100020000C948C000C948C000C948C000C948C0020
:100030000C948C000C948C000C948C000C948C0010
:100040000C948C000C948C000C948C000C948C0000
:100050000C948C000C948C000C948C000C948C00F0
:100060000C948C000C949F010C948C000C948C00CC
:100070000C948C000C948C000C948C000C948C00D0
:100080000C948C000C948C000C948C000C948C00C0
:100090000C948C000C948C000C948C000C948C00B0
:1000A0000C948C000C948C000C948C000C948C00A0
:1000B0000C948C000C948C000C948C000C948C0090
:1000C0000C948C000C948C000C948C000C948C0080
:1000D0000C948C000C948C000C948C000C948C0070
:1000E0000C948C000A4573746520657320656C2040
:1000F00076616C6F722064656C204144433D000062
:1001000011241FBECFEFD1E2DEBFCDBF00E00CBF98
:100110000E94C9010C942B020C9400001092C5009F
:1001200088E08093C40086E08093C20088E98093D1
:10013000C1000895CF93C82F8A3019F48DE00E9432
:100140009A008091C00085FFFCCFC093C600CF917C
:100150000895CF93C82F82958F708A3010F4805DF8
:1001600001C0895A0E949A008C2F8F708A3010F437
:10017000805D01C0895ACF910C949A00CF93C82F0B
:10018000892F0E94A9008C2FCF910C94A900CF92A7
:10019000DF92EF92FF926B017C01C7010E94BE00CB
:1001A000C601FF90EF90DF90CF900C94BE00AF920D
:1001B000BF92DF92EF92FF920F931F93CF93DF9343
:1001C0007C0105E010E020E0C0E1D7E28AE0A82E43
:1001D000B12CC701BE010E94DB01D62E611105C002
:1001E000211103C0C130D10529F480E38D0D0E9497
:1001F0009A0021E0DC9EC001DD9E900D1124E81ADA
:10020000F90ACE01B5010E94DB01EB010150110991
:1002100001F7DF91CF911F910F91FF90EF90DF9049
:10022000BF90AF9008954F925F926F927F928F929E
:100230009F92AF92BF92CF92DF92EF92FF920F9375
:100240001F93CF93DF934B015C01CAE0D0E000E045
:10025000C12C8AECD82E8AE9E82E8BE3F82E9AE09E
:10026000492E512C612C712CC501B401A7019601B6
:100270000E94EF01122F211108C0011106C081E078
:10028000C816D104E104F10429F480E3810F0E942F
:100290009A0001E0A12FB0E0A70196010E9411028F
:1002A000861A970AA80AB90AC701B601A3019201E2
:1002B0000E94EF0169017A012197B1F6DF91CF9198
:1002C0001F910F91FF90EF90DF90CF90BF90AF9074
:1002D0009F908F907F906F905F904F900895CF93F5
:1002E000DF93EC018991882319F00E949A00FACFDC
:1002F000DF91CF910895CF93DF93FC018491EF01BB
:100300002196882321F00E949A00FE01F7CFDF9109
:10031000CF9108959FB778948091C00087FD08C061
:1003200083B7816083BF889583B78E7F83BFF4CF07
:100330009FBF8091C6008D3009F48AE0089518951A
:1003400080E480937C0087E880937A000895909100
:100350007C008770982B90937C0080917A00806459
:1003600080937A0080917A0084FFFCCF80917A009C
:10037000806180937A00809178009091790008954F
:1003800084E120E030E0F9013197F1F78150D9F7AD
:1003900008950E94A0010E948E0082E00E94A701A1
:1003A000EC0184EE90E00E947B01CE010E94D70018
:1003B0000E94C001F2CFAA1BBB1B51E107C0AA1FBC
:1003C000BB1FA617B70710F0A61BB70B881F991FF6
:1003D0005A95A9F780959095BC01CD010895A1E2A9
:1003E0001A2EAA1BBB1BFD010DC0AA1FBB1FEE1FAF
:1003F000FF1FA217B307E407F50720F0A21BB30BFA
:10040000E40BF50B661F771F881F991F1A9469F775
:1004100060957095809590959B01AC01BD01CF01D1
:1004200008950E941C02A59F900DB49F900DA49F5B
:10043000800D911D11240895A29FB001B39FC001AA
:10044000A39F700D811D1124911DB29F700D811D00
:0A0450001124911D0895F894FFCFC8
:00000001FF
