:10000000DDEF02F0F76A140FF66E000EF72209001A
:10001000F550120000132212111404120010F76A96
:100020002E0FF66E000EF7220900F5501200207018
:100030008040504000700050F76A480FF66E000E86
:10004000F7220900F55012002410050CEA6A130E7D
:10005000E96EEF500EE0010E016E006A002EFED731
:10006000012EFBD74A0E006E002EFED700D0EF2ED9
:10007000F2D71200800ED8B2351A3A6A3B6A31C004
:1000800039F03550391A3050D8B4DCD0386E006EA3
:100090003450D8B4E0D0385ED8B481D03DE335C018
:1000A0003EF03E8E36C03DF037C03CF03B6AD89003
:1000B0003E323D323C323B32382EF8D739AE03D097
:1000C0003A80DDD03A9038903A88EA6A330EE96E89
:1000D000E9D03A9839BE0AD038A013D03E323D322A
:1000E0003C323B32002AD8B4C5D00BD03EBE0CD037
:1000F000D8903B363C363D363E360006D8B4BAD0B2
:10010000F5D73A8C6BD03A9C31C039F031AE02D081
:100110003E8EA9D03E9EA7D034C038F034C000F047
:100120003050385E31C03EF03E8E32C03DF033C0BC
:100130003CF03B6AD8903E323D323C323B32382E66
:10014000F8D739AE03D03A829AD03A9238903A8AA8
:10015000EA6A370EE96EA6D03A9A39BE0AD038A0BC
:1001600013D03E323D323C323B32002AD8B482D0EA
:100170000BD03EBE0CD0D8903B363C363D363E369A
:100180000006D8B477D0F5D73A8E28D03A9E35C03D
:1001900039F035AE02D03E8E66D03E9E64D035C07A
:1001A0003EF03E8E36C03DF037C03CF039AE04D054
:1001B0003E9E3A8464D03A943B6A3890EA6A330EA1
:1001C000E96E70D039BE1CD031C039F038A006D0ED
:1001D0003E323D323C323B32002A4CE03BAE0BD04B
:1001E0003C2A09E13D2A07E13E2A05E13E323D3243
:1001F0003C32002A3FE03ABC86D73ABEC7D71CD073
:10020000800E3E1A3EAE04D03AD035C039F00AD046
:1002100031C039F03E5206E13D5204E13C5202E168
:10022000006A21D03EBE08D0D8903B363C363D36E1
:100230003E36002EF7D71ED039AE02D03E8E13D0F8
:100240003E9E11D034C000F035C03EF036C03DF0C7
:1002500037C03CF008D030C000F031C03EF032C0B2
:100260003DF033C03CF03EC001F03DC002F03CC068
:1002700003F034D0006A016A026A036A2FD03B6A35
:100280003C1E3D1E3E1E3B1E3B2A05E13C2A03E16F
:100290003D2A01E13E2A3AB015D73AB256D73AB4D0
:1002A0008AD7B3D7EF503C2605E33D2A03E13E2A27
:1002B000D8B43880ED52EF503D2603E33E2AD8B43F
:1002C0003880ED52EF50EFBE01D0800A3E26D8B004
:1002D00038803AB8FED63ABA3FD774D712008E0E9D
:1002E000006E2C50005E2DC002F02EC001F0028E78
:1002F000005209E0D890025202E1015204E00232B9
:100300000132002EF7D72DAE05D0011E021E012AA4
:10031000D8B4022A12002C50D8B471D0006E3050DC
:10032000D8B46DD0002604E3810E002668E204D024
:100330007F0E005E64E363E02DC034F03150341A68
:100340002D8E318E2F503302F4CF36F02E503202E4
:10035000F4CF03F0F3CF35F03302F3503626F450E8
:100360003522000E03222F503202F3503626F4506D
:100370003522000E026A032202222D503302F3506E
:100380003526F4500322000E02222D503202F35083
:100390000326F4500222000E016A01222F5031027E
:1003A000F3503526F4500322000E022201222E5073
:1003B0003102F3500326F4500222000E01222D5088
:1003C0003102F3500226F4500122002A01BE05D06A
:1003D00035360336023601360006000E35AE0AD039
:1003E000032A02220122015005E1025003E10350D9
:1003F00001E1002A34BE018E34AE019E04D0006AB1
:10040000016A026A036A53EF02F08E0E006E31C079
:1004100001F030C002F0036A015209E102C001F0AC
:10042000026A080E005E015202E1006A08D0D8900C
:1004300001BE04D0023601360006F9D7019E61EFF5
:1004400002F02F50016A2E5C03E22EC000F00CD0A7
:10045000006A080E306E2E3600362F50005CD8B081
:10046000006E0136302EF7D71200286A296A2A6AF0
:100470002B6A13C02FF012C02EF011C02DF010C047
:100480002CF02DDF01C02AF013C02FF012C02EF087
:1004900011C02DF010C02CF0336A326A480E316E54
:1004A000850E306E38D703C02FF002C02EF001C089
:1004B0002DF000C02CF02A50640DF350316A306EDC
:1004C000A4D7D8822FC033F02EC032F02DC031F027
:1004D0002CC030F003C037F002C036F001C035F058
:1004E00000C034F0C7DD03C02FF002C02EF001C001
:1004F0002DF000C02CF0F3DE01C02BF02B5217E0E2
:10050000036A29501E0FE96E000E0320EA6E2BC00D
:100510002EF00A0E2F6E95DF00C0EFFF2BC02EF0DD
:100520000A0E2F6E8EDF01C02BF0292AE7D72A5240
:1005300017E0036A2850140FE96E000E0320EA6EDC
:100540002AC02EF00A0E2F6E7CDF00C0EFFF2AC0FB
:100550002EF00A0E2F6E75DF01C02AF0282AE7D789
:1005600015C004F014C005F01FC006F01EC007F04F
:1005700018EF03F0126A125003081DE3036A1250C9
:100580005BDD806E12501024E96E000E1120EA6EC1
:10059000036AEF5037DD826E12501024E96E000EB0
:1005A0001120EA6E036AEF503ADD816E0A0E136E77
:1005B0004DDD122AE0D71CEF03F0F86AD09E600EE2
:1005C000D36ED3500B6A0A6A096A086AC150C00B1D
:1005D0000F09C16E070EB46E000E946E936E926E8C
:1005E000816A806A0A0E136E31DDD8920BC033F037
:1005F0000AC032F009C031F008C030F08F0E376EFB
:10060000C20E366E750E356E790E346E33DD03C054
:100610000BF002C00AF001C009F000C008F00BC0E6
:1006200013F00AC012F009C011F008C010F01DD775
:0C063000116A040E106E9ED7D8D703008C
:020000040030CA
:0E0000003FC93E1E000781000FC00FE00F40F9
:00000001FF
;PIC18F2550
;CRC=0BB2  CREATED="18-dic.-21 17:35"
