:1000000069EF00F0F76A140FF66E000EF722090090
:10001000F55012003F065B4F666D7D077F670D5000
:10002000016A0C5C03E20CC000F00CD0006A080E00
:100030000E6E0C3600360D50005CD8B0006E0136E6
:100040000E2EF7D71200EA6A0C0EE96EEF500EE0A2
:10005000010E016E006A002EFED7012EFBD74A0E5C
:10006000006E002EFED700D0EF2EF2D7120004C093
:100070000CF00A0E0D6ED3DF01C00BF004C00CF0C3
:100080000A0E0D6ECCDF00C00AF0036A0A50BADF18
:10009000066E0780010E0C6ED6DF0790036A0B50C8
:1000A000B1DF066E0782010E0C6ECDDF079262EFA4
:1000B00000F0010E096EF40E086E085202E10952BA
:1000C00006E0D5D70850D8B409060806F6D77AEF67
:1000D00000F0F86AD09EC150C00B0F09C16E070E28
:1000E000B46E000E936E946E046A046A0450630842
:0C00F00003E3DFD7042AFAD7F8D7030097
:020000040030CA
:0E00000000C0381E008781000FC00FE00F40C7
:00000001FF
;PIC18F2550
;CRC=FABB  CREATED="28-sep.-21 05:49"
