:1000000096EF00F0486F6C61206D756E646F25642B
:100010000D0A00000900F6CF07F0F7CF08F0F55001
:100020009EA8FED7AD6E07C0F6FF08C0F7FF062EEC
:10003000F1D7AFEF00F00D50016A0C5C03E20CC089
:1000400000F00CD0006A080E0E6E0C3600360D5013
:10005000005CD8B0006E01360E2EF7D71200200ECD
:1000600007A8300E086E06C000F006AE08D0001ECD
:10007000002A00C006F02D0E086E078E0780015082
:1000800006C00CF0640E0D6ED6DF00C006F0300E18
:100090000124096E06C00CF00A0E0D6ECCDF300E86
:1000A00000240B6E300E01240A6E08C000F0300EE2
:1000B000095C04E0078207BE078412D008C009F07B
:1000C000200E086E300E0A5C04E0078007BE07822F
:1000D00007D0D8A4078004E109C00AF0200E096EF9
:1000E00007B405D007B207D007B009D00CD008502C
:1000F0009EA8FED7AD6E09509EA8FED7AD6E0A50E1
:100100009EA8FED7AD6E0B509EA8FED7AD6EB4EF85
:1001100000F0EA6A060EE96EEF5006E0200E006E6F
:10012000002EFED7EF2EFAD7C0EF00F0F86AD09E6F
:10013000B8864C0EAF6E010EB06EA60EAC6E900E71
:10014000AB6EC150C00B0F09C16E070EB46E056ACD
:10015000040EF66E000EF76E0A0E066E5BD705C033
:1001600006F0180E076E7BD70D0E9EA8FED7AD6E5B
:100170000A0E9EA8FED7AD6E052A640E066EC9D77C
:04018000E7D70300BA
:020000040030CA
:0E0000003FCF3E1E008781000FC00FE00F4073
:00000001FF
;PIC18F2550
;CRC=C867  CREATED="02-dic.-21 05:23"
