:1000000085EF00F02564486F6C6100000C50016AB8
:100010000B5C03E20BC000F00CD0006A080E0D6E02
:100020000B3600360C50005CD8B0006E01360D2E39
:10003000F7D71200200E06A8300E076E05C000F09C
:1000400005AE08D0001E002A00C005F02D0E076E78
:10005000068E0680015005C00BF0640E0C6ED6DFD4
:1000600000C005F0300E0124086E05C00BF00A0E2A
:100070000C6ECCDF300E00240A6E300E0124096EA7
:1000800007C000F0300E085C04E0068206BE06845D
:1000900012D007C008F0200E076E300E095C04E095
:1000A000068006BE068207D0D8A4068004E108C0F8
:1000B00009F0200E086E06B405D006B207D006B0CF
:1000C00009D00CD007509EA8FED7AD6E08509EA850
:1000D000FED7AD6E09509EA8FED7AD6E0A509EA801
:1000E000FED7AD6E9CEF00F00900F6CF06F0F7CF1B
:1000F00007F0F5509EA8FED7AD6E06C0F6FF07C00C
:10010000F7FF052EF1D7A3EF00F0F86AD09EB8866E
:100110004C0EAF6E010EB06EA60EAC6E900EAB6EB6
:10012000046AC150C00B0F09C16E070EB46E04C043
:1001300005F0180E066E7ED7060EF66E000EF76EF0
:0A014000040E056ED1D7042A030057
:020000040030CA
:0E0000003FCF3E1E008781000FC00FE00F4073
:00000001FF
;PIC18F2550
;CRC=1E43  CREATED="14-dic.-21 14:32"
