:10000000CEEF00F0F76A140FF66E000EF72209002B
:10001000F55012000004020601050307EA6A120EF9
:10002000E96EEF500EE0010E016E006A002EFED761
:10003000012EFBD74A0E006E002EFED700D0EF2E09
:10004000F2D7F6EF00F01950016A185C03E218C00D
:1000500000F00CD0006A080E1A6E183600361950DF
:10006000005CD8B0006E01361A2EF7D71200200EB1
:1000700013A8300E146E12C000F012AE08D0001E8D
:10008000002A00C012F02D0E146E138E1380015042
:1000900012C018F0640E196ED6DF00C012F0300ED8
:1000A0000124156E12C018F00A0E196ECCDF300E46
:1000B0000024176E300E0124166E14C000F0300EAE
:1000C000155C04E0138213BE138412D014C015F023
:1000D000200E146E300E165C04E0138013BE1382E3
:1000E00007D0D8A4138004E115C016F0200E156EB9
:1000F00013B405D013B207D013B009D00CD01450EC
:100100009EA8FED7AD6E15509EA8FED7AD6E1650B8
:100110009EA8FED7AD6E17509EA8FED7AD6EFBEF22
:1001200000F0300E125CF80F22E2080FB9EF00F079
:10013000010E016E1CD01BD0020E016E18D017D01C
:10014000030E016E14D013D0040E016E10D00FD028
:10015000050E016E0CD00BD0060E016E08D007D034
:10016000070E016E04D003D0000E016E00D0FEEF2A
:1001700000F0E824F76AF7368D0FF66E010EF722CD
:100180000A00F550FA6E0800F550F96E680130016A
:10019000380140014801500158016001F86AD09EC1
:1001A000600ED36ED3507B0E0B6E140E0A6E160EBD
:1001B000096E830E086EB896190EAF6EA60EAC6E61
:1001C000900EAB6E94988B88010E0C6EC150C00BD4
:1001D0000F09C16E070EB46EF00E946E000E936E92
:1001E000926E816A806A0A0E126E18D70CC012F0E5
:1001F000180E136E3CD70DC012F093D7036A01504E
:0A02000001DF016E816EF2D70300EA
:020000040030CA
:0E0000003FC93E1E000781000FC00FE00F40F9
:00000001FF
;PIC18F2550
;CRC=CDAF  CREATED="21-dic.-21 16:20"
