:1000000001308A00EE290000FF00030E8301A100E9
:100010000A08A0008A010408A2007708A300780853
:10002000A4007908A5007A08A60003170D08031399
:10003000A70003170F080313A80003170C080313E6
:10004000A90003170E080313AA00831383128C3030
:100050008400801E2D288C1A4E2822088400230834
:10006000F7002408F8002508F9002608FA002708F8
:1000700003178D000313280803178F0003132908A3
:1000800003178C0003132A0803178E00031320089C
:100090008A00210E8300FF0E7F0E09008A110A12CA
:1000A00057298316081088100811831288100F3002
:1000B00083160805F038880083120815000008141C
:1000C00000000808F700080E0F39F8007808C7008C
:1000D00008100000081400000808F700080E0F3987
:1000E000F8007808C60008100F308316080588004D
:1000F0008312470EF700F030F70577084604F80042
:100100007808C600C61B5728441C88104418881459
:100110000000081100000810450EC6000F30C6058B
:100120004608C700470EF039F7000F30080577047E
:100130008800000008149C28081045080F39C600E4
:100140004608C700470EF039F7000F30080577045E
:10015000880000000814AC2808100800410BB128E2
:10016000B4284030C200B528C20101304002C207A5
:1001700042088038C300C4014308C500512008006C
:1001800040308400831300080319D4280130F8009C
:10019000F701F70BC928F80BC8284A30F700F70B0E
:1001A000CF28D228800BC62808003F08073A031939
:1001B000E3280B3A0319E828063A0319F028023A13
:1001C0000319F628FB280130C000C100AE20002929
:1001D000C4010130C50051200230C000C0200029F8
:1001E0000130C0000230C100AE200029C40110302F
:1001F000C500512000290130C4003F08C50051202E
:1002000008000B08BC008B13831603178C170C1403
:100210000000000083120313BC1B8B1703170C088C
:100220007F39031955290313BC0003170D08031365
:10023000BD0003170F080313BE003C08BF00D52004
:100240003D0803178D0003133E0803178F000313A7
:100250000B08BF008B13831603178C170C140000B8
:10026000000083120313BF1B8B1703170C0D0E0D19
:100270007F39031955290313BC0003170D08031315
:10028000BD0003170F080313BE003C08BF00D520B4
:100290003D0803178D0003133E0803178F008D0AD6
:1002A00003198F0A031301290317031308008C1E77
:1002B00057291A08AC000130AE00AD072D08103CDC
:1002C00003187529AD01793003178D0001308F00B7
:1002D000031301210130C000C100AE207A300317A2
:1002E0008D0001308F00031301218C128A110A1234
:1002F0002D280C00D232E334E234E4373D00D23210
:10030000E334E234E4373D002830B0000C30B10073
:100310000130B2000630B3000810881008110F3009
:100320008316080588000810881008118312AB0195
:100330008B1BAB178B130F30C000C020AB1B8B1770
:100340000130AF002F08033C031CBE290330C70057
:10035000470EF039F7000F300805770488000000D9
:100360000814B2290810AB018B1BAB178B13053097
:10037000C000C020AB1B8B17AF0AA2290230C700F8
:10038000470EF039F7000F300805770488000000A9
:100390000814CA290810AB018B1BAB178B1305304F
:1003A000C000C020AB1B8B17AF012F08033C031C00
:1003B000EB2930302F07840083130008B400AB0111
:1003C0008B1BAB178B13C4013408C5005120AB1B2A
:1003D0008B17AF0AD5298A110A12122A03081F396E
:1003E000830083160317871510300313990000301C
:1003F0009A00A6309800903083129800AD01AE01AB
:10040000831603170908C039890003131F129F12AE
:100410000030031788008312870188018901831344
:100420000313842983168C16C03083128B04AB010E
:100430008B1BAB178B130130C000C100AE20AB1B70
:100440008B177F3003178D0001308F000313AB0132
:100450008B1BAB178B130121AB1B8B172E0B452A64
:10046000AB018B1BAB178B132D08C0000230C100F2
:10047000AE20AB1B8B17AB018B1BAB178B132C0860
:0E048000BF00D520AB1B8B17AE012E2A6300E8
:04400E00E12FFF3F60
:00000001FF
;PIC16F887
;CRC=AD6E  CREATED="01-dic.-21 03:18"
