:10000000D2EF02F0202054656D702E2025322E3262
:100010006600EA6A170EE96EEF500EE0010E016EFF
:10002000006A002EFED7012EFBD74A0E006E002E6E
:10003000FED700D0EF2EF2D712001EB002D08A9A5F
:1000400001D08A8A939A1EB202D08A9801D08A88F7
:1000500093981EB402D08A9601D08A8693961EB6D3
:1000600002D08A9401D08A84939400008A8C939C55
:1000700000D08A9C939C12001F6A938A000E81BA5A
:10008000010E1F129388000E81B8010E006ED890E9
:10009000003600501F129386000E81B6010E006ECE
:1000A00000360036FC0E001600501F129384000E1E
:1000B00081B4010E006E003600360036F80E0016D0
:1000C00000501F121FC001F01200938A938893867C
:1000D00093848A82939200008A8C939C0000CCDFE8
:1000E00001C01EF08A9C939C00008A8C939C0000A7
:1000F000C3DF01C01DF08A9C939C939A93989396BA
:1001000093941E38006EF00E001600501D10016E04
:1001100090EF00F0939C939E93928A9E939ED5D7E6
:1001200001C01DF001BEFBD71B5202E18A9E01D027
:100130008A8E939E00008A92939200008A9C939CE0
:100140001C381D6E0F0E1D161DC01EF076DF1C50D4
:100150000F0B1D6E1E6E71DF1200280E0A6E0C0E44
:100160000B6E010E0C6E060E0D6E8A9C939C8A9E81
:10017000939E8A929392939A939893969394939C36
:10018000939E93920F0E176E44DF010E096E095075
:10019000030808E3030E1E6E50DF050E176E39DFED
:1001A000092AF5D7020E1E6E48DF050E176E31DFE5
:1001B000096A095003080DE3036A09500A0FE96E42
:1001C000000E0320EA6EEFCF1CF01B6AA3DF092AA2
:1001D000F0D7E0EF02F0182C01D003D0400E196EDA
:1001E00001D0196A010E175C1926195080091A6E80
:1001F0001B6A1C6E8FDF12001650070A07E00B0AFD
:100200000AE0060A10E0020A14E018D0010E176E88
:10021000186EE1DF18D01B6A010E1C6E7BDF020E28
:10022000176EF7DE10D0010E176E020E186ED3DFB8
:100230000AD01B6A100E1C6E6DDF05D0010E1B6EFE
:1002400016C01CF067DF12000900F6CF0AF0F7CFE6
:100250000BF0F5CF16F0D0DF0AC0F6FF0BC0F7FFAA
:10026000092EF2D7F3EF02F01650D8B471D0006E19
:100270001A50D8B46DD0002604E3810E002668E23F
:1002800004D07F0E005E64E363E017C01EF01B50D5
:100290001E1A178E1B8E19501D02F4CF20F0185015
:1002A0001C02F4CF03F0F3CF1FF01D02F350202601
:1002B000F4501F22000E032219501C02F350202676
:1002C000F4501F22000E026A0322022217501D0260
:1002D000F3501F26F4500322000E022217501C0276
:1002E000F3500326F4500222000E016A0122195035
:1002F0001B02F3501F26F4500322000E022201229B
:1003000018501B02F3500326F4500222000E012263
:1003100017501B02F3500226F4500122002A01BE9E
:1003200005D01F360336023601360006000E1FAE1A
:100330000AD0032A02220122015005E1025003E102
:10034000035001E1002A1EBE018E1EAE019E04D0A4
:10035000006A016A026A036A29EF02F01650B608C1
:10036000166E036A17C01AF0178ED890173218321B
:1003700019320332023201320032162EF6D71AAE8B
:100380000BD0001E011E021E031E002AD8B4012A33
:10039000D8B4022AD8B4032A3CEF02F0D8B203D072
:1003A000EA6A1E0EE96E006A016A026A036A1E6A40
:1003B0001F6A206A216A1D501C101B101A102CE0A5
:1003C000200E226ED89016361736183619361E367D
:1003D0001F36203621361D50215C08E11C50205C60
:1003E00005E11B501F5C02E11A501E5C0FE31A501E
:1003F0001E5E1B50D8A01B3C1F5E1C50D8A01C3C8E
:10040000205E1D50D8A01D3C215ED88000360136EC
:1004100002360336222ED6D71EC0EFFF1FC0ECFFD8
:1004200020C0ECFF21C0ECFF1200E9500E6E0D5011
:10043000106E19E00CC019F00BC018F00AC017F0CC
:1004400009C016F01D6A1C6A200E1B6E820E1A6E01
:100450000BD703C00CF002C00BF001C00AF000C0C3
:1004600009F0102EE7D70CC019F00BC018F00AC025
:1004700017F009C016F072D703C00CF002C00BF0E1
:1004800001C00AF000C009F00CAE0DD00E060E8AB5
:10049000091E0A1E0B1E0C1E092AD8B40A2AD8B43B
:1004A0000B2AD8B40C2A3B0E156E9A0E146ECA0E87
:1004B000136E126A0A0E106E0D50D8B40E2AD8822E
:1004C000EA6A090EE96E0CC019F00BC018F00AC0F8
:1004D00017F009C016F015C01DF014C01CF013C0B1
:1004E0001BF012C01AF05ADF015000520FE10D2824
:1004F000105C0CE00E500CE00F0B105C01E037E2DA
:100500000EBE35D00EBC04D0200E2DD0200E0E16FF
:100510000EAA0CD00E9A0D50D8A40E0600500E6EE6
:100520002D0E166E69DE0E50006E0E6A0D50105CB8
:100530000AE100500E6E2E0E166E5EDE0E50006E3C
:10054000200E0E16000E300E0EAA0DD00E9A0D5073
:10055000D8A40E0600500E6E2D0E166E4DDE0E50F7
:10056000006E0E6A300E002600C016F045DED892EE
:1005700015C019F014C018F013C017F012C016F00F
:100580001D6A1C6A1B6A0A0E1A6E08DF03C015F08A
:1005900002C014F001C013F000C012F0102E8FD76B
:1005A00000EF03F0F86AD09E600ED36ED350C150B6
:1005B000C00B0F09C16E070EB46E000E936ECDD541
:1005C000E10E086E7A0E076E280E066E820E056E1C
:1005D000010E176E186EFFDD040EF66E000EF76E3C
:1005E000080E096E31D6890EE96E08C00CF007C0FE
:1005F0000BF006C00AF005C009F0020E0D6E15D70B
:04060000E7D7030035
:020000040030CA
:0E00000027C83E1E008781000FC00FE00F4092
:00000001FF
;PIC18F2550
;CRC=14C8  CREATED="28-sep.-21 23:16"
