:1000000000308A00BC280000C434E734F4322036C3
:100010006F10F13A6510E432F3326110ED306E3258
:100020006139A0306C10D332E73A6E326F10D024B1
:10003000431DA0060A00831608108312081008301A
:10004000F80022280000F8173328F813A50C03182D
:100050000814031C0810781733287813F80B262887
:100060003128000008141C308400840B35283828FF
:10007000F81B2528781B2D2808000B08A2008B13DD
:10008000831603178C170C1400000000831203134F
:10009000A21B8B1703170C087F3903199128031330
:1000A000A20003170D080313A30003170F0803137F
:1000B000A4002208A5001B20230803178D000313AA
:1000C000240803178F0003130B08A5008B13831656
:1000D00003178C170C140000000083120313A51BD8
:1000E0008B1703170C0D0E0D7F390319912803137D
:1000F000A20003170D080313A30003170F0803132F
:10010000A4002208A5001B20230803178D00031359
:10011000240803178F008D0A03198F0A03133D2843
:10012000031703138A110A12E62883168814831210
:10013000881898280830F700A201F717AD28F713A0
:10014000AD28031088180314A20C7717AD28771375
:10015000F70BA1282208F800B9281C30F71B07303C
:10016000F800F80BB1280000F71B9F28771BA72881
:10017000A1288A110A12E72803081F398300831671
:100180000317871510300313990000309A00A6302A
:100190009800903083129800831608108312081478
:1001A000831603170908C039890003131F129F1211
:1001B00000300317880083128701880189018313A7
:1001C00004308D0000308F0003133D2895287808F7
:1001D000A1002108A5001B2021080C1EED28990074
:0401E000E6286300AA
:04400E00E12FFF3F60
:00000001FF
;PIC16F887
;CRC=AFC4  CREATED="01-dic.-21 03:36"
