:100000000C9428010C9459010C9459010C94590139
:100010000C9459010C9459010C9459010C945901F8
:100020000C9459010C9459010C9459010C945901E8
:100030000C9459010C9459010C9459010C945901D8
:100040000C9459010C9459010C9459010C945901C8
:100050000C9459010C9459010C9459010C946304AB
:100060000C9459010C942D040C9403040C94590124
:100070000C9459010C9459010C9459010C94590198
:100080000C9459010C9459010C9459010C94590188
:100090000C9459010C9459010C9459010C94590178
:1000A0000C9459010C9459010C9459010C94590168
:1000B0000C9459010C9459010C9459010C94590158
:1000C0000C9459010C9459010C9459010C94590148
:1000D0000C9459010C9459010C9459010C94590138
:1000E0000C9459010C94CA010C94FD020C940A035F
:1000F0000C9418030C94F5020C94DE020C945D022F
:100100000C940E030C9430030C9434030C942203CF
:100110000C9410020C942A030C94F9020C94D8014C
:100120000C94AD040C9404030C94A7010C94B60138
:100130000C947A010C9401030C9426030C94E302B2
:100140000C941C030C94140300000A0B02090C0D00
:100150000E0807030401000000000000000000007A
:10016000000000000000000000000000000000008F
:10017000000000001211100000000000000000004C
:10018000000000000000000000000000000000006F
:100190002200250028002B002E003100340002012F
:1001A0000000050108010B010000210024002700C8
:1001B0002A002D0030003300010100000401070176
:1001C0000A010505050507050808080802020202DC
:1001D0000A0A0808040404040101010101010101E3
:1001E0000303030303030303040707070C0C0C0CAE
:1001F0000C0C0C0C02020202060606060606060697
:100200000B0B0B0B0B0B0B0B010210202008081023
:100210002040102040800201020108040201010276
:10022000040810204080804020100804020180044F
:1002300002018040201008040201080402010102AA
:100240000408102040800102040810204080AD0402
:1002500011241FBECFEFD1E2DEBFCDBF00E00CBF47
:1002600012E0A0E0B2E0E8E1F3E100E00BBF02C081
:1002700007900D92A434B107D9F723E0A4E4B2E0CB
:1002800001C01D92A930B207E1F711E0C8E2D1E048
:1002900000E006C021970109802FFE010E946E092F
:1002A000C732D10780E00807A9F70E94FA040C942E
:1002B0008A090C94000090E0FC01E85FFD4F249156
:1002C0008E539E4FFC018491882399F090E0880F13
:1002D000991FFC01E855FE4FA591B491FC01E2572E
:1002E000FE4F859194918FB7F894EC91E22BEC93AB
:1002F0008FBF0895AF92BF92CF92DF92EF92FF929D
:100300000F931F93CF93DF936C017B018B01040F3D
:10031000151FEB015E01AE18BF08C017D10759F0D9
:100320006991D601ED91FC910190F081E02DC6011B
:100330001995892B79F7C501DF91CF911F910F9105
:10034000FF90EF90DF90CF90BF90AF900895FC01A9
:10035000538D448D252F30E0842F90E0821B930B2A
:10036000541710F0CF96089501970895FC01918DD0
:10037000828D981761F0A28DAE0FBF2FB11D5D96D3
:100380008C91928D9F5F9F73928F90E008958FEF75
:100390009FEF0895FC01918D828D981731F0828D29
:1003A000E80FF11D858D90E008958FEF9FEF089580
:1003B000FC01918D228D892F90E0805C9F4F821BE4
:1003C00091098F739927089589E592E00E94D801D9
:1003D00021E0892B09F420E0822F0895FC01A48DEF
:1003E000A80FB92FB11DA35ABF4F2C91848D90E057
:1003F00001968F739927848FA689B7892C93A0893A
:10040000B1898C91837080648C93938D848D9813C3
:1004100006C00288F389E02D80818F7D8083089556
:10042000EF92FF920F931F93CF93DF93EC0181E044
:10043000888F9B8D8C8D98131AC0E889F9898081EB
:1004400085FF15C09FB7F894EE89FF896083E8891E
:10045000F98980818370806480839FBF81E090E010
:10046000DF91CF911F910F91FF90EF900895F62E9D
:100470000B8D10E00F5F1F4F0F731127E02E8C8D37
:100480008E110CC00FB607FCFACFE889F98980817C
:1004900085FFF5CFCE010E94EE01F1CFEB8DEC0F81
:1004A000FD2FF11DE35AFF4FF0829FB7F8940B8F99
:1004B000EA89FB8980818062CFCFCF93DF93EC0103
:1004C000888D8823B9F0AA89BB89E889F9898C913C
:1004D00085FD03C0808186FD0DC00FB607FCF7CFF8
:1004E0008C9185FFF2CF808185FFEDCFCE010E94F8
:1004F000EE01E9CFDF91CF91089580E090E0892B64
:1005000029F00E94E40181110E94000080E090E047
:10051000892B49F080E090E0892B29F00E940000AF
:1005200081110E94000080E090E0892B49F080E07A
:1005300090E0892B29F00E94000081110E940000A8
:1005400080E090E0892B49F080E090E0892B29F051
:100550000E94000081110C9400000895282F30E0C3
:10056000F901E85BFE4F9491F901E85FFD4F44917A
:100570002E533E4FF9012491222309F435C09923CB
:1005800011F191509231F8F4E92FF0E08827E4530B
:10059000FD4F8F4F0C946E09FD020103DE02F50240
:1005A000F902E30204030A030E03140318031C03F5
:1005B00022032603E3022A033003340380918000E0
:1005C0008F7780938000E22FF0E0EE0FFF1FE2575D
:1005D000FE4FA591B4918FB7F894EC91611148C08A
:1005E00040954E234C938FBF0895809180008F7D5E
:1005F000E8CF80918000877FE4CF84B58F7784BD7A
:10060000E2CF84B58F7DFBCF8091B0008F77809350
:10061000B000D9CF8091B0008F7DF9CF809190004C
:100620008F7780939000CFCF809190008F7DF9CF0E
:1006300080919000877FF5CF8091A0008F77809385
:10064000A000C1CF8091A0008F7DF9CF8091A00044
:10065000877FF5CF809120018F7780932001B3CFE2
:10066000809120018F7DF9CF80912001877FF5CF88
:100670004E2BB8CF3FB7F8948091490290914A022F
:10068000A0914B02B0914C0226B5A89B05C02F3F0C
:1006900019F00196A11DB11D3FBFBA2FA92F982FA8
:1006A0008827BC01CD01620F711D811D911D42E0A3
:1006B000660F771F881F991F4A95D1F708958F926B
:1006C0009F92AF92BF92CF92DF92EF92FF924B0137
:1006D0005C010E943A036B017C010E943A036C1991
:1006E0007D098E099F09683E734081059105A8F335
:1006F00021E0821A9108A108B10888EEC80E83E0B3
:10070000D81EE11CF11C81149104A104B10429F745
:10071000FF90EF90DF90CF90BF90AF909F908F9021
:100720000895FC0101900020E9F73197AF01481BC3
:10073000590BBC0189E592E00C947A018F929F924B
:10074000AF92BF920F931F93CF93DF93CDB7DEB7D6
:10075000A1970FB6F894DEBF0FBECDBF19A24230ED
:1007600008F44AE08E010F5D1F4F842E912CB12CAE
:10077000A12CA50194010E944C09E62FB901CA01E0
:10078000EA30F4F4E05DD801EE938D01232B242BA5
:10079000252B79F790E080E0109719F0CD010E94A9
:1007A0009103A1960FB6F894DEBF0FBECDBFDF91C7
:1007B000CF911F910F91BF90AF909F908F90089510
:1007C000E95CE1CFCF92DF92EF92FF92CF93DF937C
:1007D0006B017C016DE289E592E00E941002EC0160
:1007E00066277727CB016C197D098E099F094AE09E
:1007F0000E949E038C0F9D1FDF91CF91FF90EF9081
:10080000DF90CF9008951F920F920FB60F92112490
:100810000BB60F922F933F934F935F936F937F93FA
:100820008F939F93AF93BF93EF93FF9389E592E0EC
:100830000E94EE01FF91EF91BF91AF919F918F9137
:100840007F916F915F914F913F912F910F900BBED0
:100850000F900FBE0F901F9018951F920F920FB61A
:100860000F9211240BB60F922F938F939F93EF93B8
:10087000FF93E0916902F0916A028081E0916F023A
:10088000F091700282FD1DC09081809172028F5F95
:100890008F7320917302821741F0E0917202F0E0B1
:1008A000E75AFD4F958F80937202FF91EF919F91D0
:1008B0008F912F910F900BBE0F900FBE0F901F9036
:1008C00018958081F2CF1F920F920FB60F921124CC
:1008D0002F933F938F939F93AF93BF938091450244
:1008E00090914602A0914702B09148023091440293
:1008F00023E0230F2D3758F50196A11DB11D20933C
:1009000044028093450290934602A0934702B0931D
:1009100048028091490290914A02A0914B02B09105
:100920004C020196A11DB11D8093490290934A0289
:10093000A0934B02B0934C02BF91AF919F918F91C6
:100940003F912F910F900FBE0F901F90189526E8A2
:10095000230F0296A11DB11DD2CFE9E5F2E013826B
:10096000128288EE93E0A0E0B0E084839583A683B2
:10097000B78382E192E09183808385EC90E0958754
:10098000848784EC90E09787868780EC90E0918B59
:10099000808B81EC90E0938B828B82EC90E0958B46
:1009A000848B86EC90E0978B868B118E128E138E43
:1009B000148EA6EFB2E08EE015968C93159786E123
:1009C00016968C931697E6E1F2E0E4911796EC9375
:1009D0001797E0EDF1E0E4911896EC93189740E852
:1009E0005EE360E070E01D964D935D936D937C93A4
:1009F00050970895789484B5826084BD84B58160F1
:100A000084BD85B5826085BD85B5816085BD8091D9
:100A10006E00816080936E00109281008091810051
:100A20008260809381008091810081608093810049
:100A3000809180008160809380008091B10084600B
:100A40008093B1008091B00081608093B00080916C
:100A500091008260809391008091910081608093E9
:100A60009100809190008160809390008091A1001E
:100A700082608093A1008091A10081608093A10099
:100A80008091A00081608093A0008091210182600C
:100A900080932101809121018160809321018091C7
:100AA000200181608093200180917A00846080938E
:100AB0007A0080917A00826080937A0080917A0037
:100AC000816080937A0080917A00806880937A00B8
:100AD0001092C100E0916902F0916A0282E0808385
:100AE000E0916502F09166021082E0916702F09158
:100AF000680280E1808310927102E0916D02F091B2
:100B00006E0286E08083E0916B02F0916C0280813E
:100B100080618083E0916B02F0916C02808188603B
:100B20008083E0916B02F0916C0280818068808309
:100B3000E0916B02F0916C0280818F7D808385E073
:100B40000E945B0184E00E945B0180E00E945B01E7
:100B500082E00E945B018EE00E945B0102E010E0F7
:100B6000812C912C70E2A72E72E4B72EEEE02E2E8F
:100B7000E2E03E2E64E670E080E090E00E945F03D9
:100B8000C0900002D0900102E0900202F0900302B7
:100B900020E030E048E152E4C701B6010E94C108FC
:100BA00087FFE7C020E030E040EB51E4C701B60129
:100BB0000E94D40718160CF0E5C0C701B6010E94C8
:100BC000D907072E000C880B990B0E9411082B01E6
:100BD0003C01AC019B01C701B6010E94670720E000
:100BE00030E040E251E40E94C6080E94D907653017
:100BF000710554F020E030E040E05FE3C301B20152
:100C00000E9468072B013C01A3019201C301B201BC
:100C10000E94680720E030E040E352E40E9467074A
:100C20000E94D907362F272F4DE4E42E42E0F42E00
:100C3000F701832F922FB8010E9438098193919375
:100C4000832F922F97FD019695958795382F292F01
:100C500045E552E04E175F0761F790935602809387
:100C600055028092000290920102A0920202B0927C
:100C70000302C4E0D2E089919991F7012191319169
:100C80007F012C01990F660877082130310509F0A2
:100C900080C061E00E94AE0280E292E00E94910377
:100CA00077FE7DC0C301B2010E94E2032C163D060F
:100CB00011F720E030E040E05FE3609100027091C6
:100CC000010280910202909103020E9467076093E3
:100CD000000270930102809302029093030285E365
:100CE00092E00E94910384E392E00E949103C090FD
:100CF0000002D0900102E0900202F0900302A701EE
:100D00009601C701B6010E943309882309F44DC03A
:100D100087E392E00E94910384E392E00E949103B2
:100D200085E392E00E94910384E392E00E949103A4
:100D300020E030E040EA51E460910002709101024D
:100D400080910202909103020E94D40787FF08C09D
:100D50008092000290920102A0920202B0920302DD
:100D600068EE73E080E090E00E945F030E947D02E5
:100D700001CF6AE9C62E69E9D62E67E1E62E62E464
:100D8000F62E1BCFC12CD12C50EBE52E51E4F52EC5
:100D900014CF60E00E94AE028BE292E07FCF4AE087
:100DA000C301B2010E949E0381CF26013701E8945E
:100DB00077F82FEF3FEF4FE75FE7C301B2010E94E3
:100DC000330981110DC02FEF3FEF4FE75FE7C301FC
:100DD000B2010E94D40718161CF48BE392E09ACF5C
:100DE0002FEF3FEF4FE75FE4C701B6010E94C10854
:100DF00018161CF48FE392E08DCF2FEF3FEF4FE7F3
:100E00005FECC701B6010E94D40787FDF3CF20E055
:100E100030E0A901C701B6010E94D40787FF09C0CD
:100E20006DE289E592E00E941002F7FAF094F7F87B
:100E3000F0942AE037ED43EA5BE3C701B6010E9474
:100E400068072B013C010E94E0076B017C010E94B6
:100E50000F089B01AC01C301B2010E9467072B017F
:100E60003C014AE0C701B6010E949E036EE289E59B
:100E700092E00E94100220E030E040E251E4C30121
:100E8000B2010E94C6082B013C010E94E0076B01E1
:100E9000F12CE12C4AE0C701B6010E949E03C70174
:100EA000B6010E940F089B01AC01C301B2010E9470
:100EB000670720E030E040E251E40E94C6080E944B
:100EC000E00790E080E04AE00E949E0325CF505862
:100ED000BB27AA270E947F070C9487080E947908E5
:100EE00038F00E94800820F039F49F3F19F426F46E
:100EF0000C9476080EF4E095E7FB0C947008E92F4B
:100F00000E94980858F3BA17620773078407950779
:100F100020F079F4A6F50C94BA080EF4E0950B2EA7
:100F2000BA2FA02D0B01B90190010C01CA01A0013B
:100F30001124FF27591B99F0593F50F4503E68F196
:100F40001A16F040A22F232F342F4427585FF3CFD7
:100F5000469537952795A795F0405395C9F77EF4A8
:100F60001F16BA0B620B730B840BBAF09150A1F0F1
:100F7000FF0FBB1F661F771F881FC2F70EC0BA0F77
:100F8000621F731F841F48F4879577956795B795FF
:100F9000F7959E3F08F0B0CF9395880F08F09927FA
:100FA000EE0F9795879508950E944C0808F481E00C
:100FB00008950E94E0076894B1110C94BB0808954D
:100FC0000E94A00888F09F5798F0B92F9927B75131
:100FD000B0F0E1F0660F771F881F991F1AF0BA95DD
:100FE000C9F714C0B13091F00E94BA08B1E0089579
:100FF0000C94BA08672F782F8827B85F39F0B93F6B
:10100000CCF3869577956795B395D9F73EF490958F
:101010008095709561957F4F8F4F9F4F0895E8940D
:1010200009C097FB3EF490958095709561957F4F30
:101030008F4F9F4F9923A9F0F92F96E9BB279395DE
:10104000F695879577956795B795F111F8CFFAF4EE
:10105000BB0F11F460FF1BC06F5F7F4F8F4F9F4F1F
:1010600016C0882311F096E911C0772321F09EE87D
:10107000872F762F05C0662371F096E8862F70E0E3
:1010800060E02AF09A95660F771F881FDAF7880FBD
:101090009695879597F90895990F0008550FAA0B13
:1010A000E0E8FEEF16161706E807F907C0F012167B
:1010B0001306E407F50798F0621B730B840B950B7E
:1010C00039F40A2661F0232B242B252B21F40895D3
:1010D0000A2609F4A140A6958FEF811D811D089570
:1010E00097F99F6780E870E060E008959FEF80ECDB
:1010F000089500240A94161617061806090608957E
:1011000000240A9412161306140605060895092EE3
:101110000394000C11F4882352F0BB0F40F4BF2B52
:1011200011F460FF04C06F5F7F4F8F4F9F4F089592
:1011300057FD9058440F551F59F05F3F71F0479588
:10114000880F97FB991F61F09F3F79F0879508956D
:10115000121613061406551FF2CF4695F1DF08C08C
:10116000161617061806991FF1CF869571056105A9
:1011700008940895E894BB2766277727CB0197F951
:1011800008950E944C0808F48FEF08950E94D90832
:101190000C9487080E94790838F00E94800820F09B
:1011A000952311F00C9470080C94760811240C947B
:1011B000BB080E94980870F3959FC1F3950F50E00B
:1011C000551F629FF001729FBB27F00DB11D639FF9
:1011D000AA27F00DB11DAA1F649F6627B00DA11D9F
:1011E000661F829F2227B00DA11D621F739FB00D45
:1011F000A11D621F839FA00D611D221F749F3327B5
:10120000A00D611D231F849F600D211D822F762F4D
:101210006A2F11249F5750409AF0F1F088234AF02A
:10122000EE0FFF1FBB1F661F771F881F9150504096
:10123000A9F79E3F510580F00C9470080C94BB08F0
:101240005F3FE4F3983ED4F3869577956795B7951D
:10125000F795E7959F5FC1F7FE2B880F911D969537
:10126000879597F908950E944C08880B990B08956B
:1012700097FB072E16F4009407D077FD09D00E9443
:10128000760907FC05D03EF4909581959F4F08950F
:10129000709561957F4F0895A1E21A2EAA1BBB1B82
:1012A000FD010DC0AA1FBB1FEE1FFF1FA217B30732
:1012B000E407F50720F0A21BB30BE40BF50B661F48
:1012C000771F881F991F1A9469F76095709580950C
:1012D00090959B01AC01BD01CF010895EE0FFF1F5A
:1012E000881F8BBF0790F691E02D1994AA1BBB1B9A
:1012F00051E107C0AA1FBB1FA617B70710F0A61B16
:10130000B70B881F991F5A95A9F780959095BC0136
:08131000CD010895F894FFCF10
:101318000000204205000400000002000E0000004A
:10132800000010027A01A7015D02D801B601CA01C6
:101338007072656E6469656E646F00617061676183
:101348006E646F000D0A006E616E00696E66006F54
:0413580076660000B5
:00000001FF
